NOMGBS0010549000000            6320050000000000012345678912014-09-26          000001963026MPREMLIMYGS   N00000000DEBITORDERMONTHLY   0YZAR   LIM          Wells Funerals                2351          N00                                                                        F                              
TTOTZZZZZZZZZZZZZZZ                                                                                                                                                                                     00000196300000010000000000000000000000000000000000000000000000000000G                               
NOMGBS0010035000000            6320050000000000012345678912014-09-26          000001547026MPREMLIMYGS   N00000000DEBITORDERMONTHLY   0YZAR   LIM          Fairways Funerals             2351          N00                                                                        F                              
TTOTZZZZZZZZZZZZZZZ                                                                                                                                                                                     00000154700000010000000000000000000000000000000000000000000000000000G                               
DOMGBS0010035000000            6320050000000000012345678912014-09-27          000001547027MPREMLIMYGS   N00000000DEBITORDERMONTHLY   0YZAR   LIM          Fairways Funerals             2351          N00                                                                        F                              
NOMGBS0010035000000            6320050000000000012345678912014-09-27          000001547027MPREMLIMYGS   N00000000DEBITORDERMONTHLY   0YZAR   LIM          Fairways Funerals             2351          N00                                                                        F                              
TTOTZZZZZZZZZZZZZZZ                                                                                                                                                                                     00000309400000020000000000000000000000000000000000000000000000000000G                               
DOMGBS0010027000000            6320050000000000012345678912014-09-27          000001425027MPREMLIMYGS   N00000000DEBITORDERMONTHLY   0YZAR   LIM          Sweet Sleep Funerals          2351          N00                                                                        F                              
NOMGBS0010027000000            6320050000000000012345678912014-09-27          000001425027MPREMLIMYGS   N00000000DEBITORDERMONTHLY   0YZAR   LIM          Sweet Sleep Funerals          2351          N00                                                                        F                              
AOMGBS0009989000000            6320050000000000012345678912014-09-29          000001547029MPREMLIMYGS   N00000000DEBITORDERMONTHLY   0YZAR   LIM          Wellington Funerals           2351          N00                                                                        F                              
NOMGBS0009990000000            6320050000000000012345678912014-09-29          000001547029MPREMLIMYGS   N00000000DEBITORDERMONTHLY   0YZAR   LIM          Swartland Funerals            2351          N00                                                                        F                              
TTOTZZZZZZZZZZZZZZZ                                                                                                                                                                                     00000594400000040000000000000000000000000000000000000000000000000000G                               
DOMGBS0010027000000            6320050000000000012345678912014-09-27          000001425027MPREMLIMYGS   N00000000DEBITORDERMONTHLY   0YZAR   LIM          Sweet Sleep Funerals          2351          N00                                                                        F                              
NOMGBS0010027000000            6320050000000000012345678912014-09-27          000001425027MPREMLIMYGS   N00000000DEBITORDERMONTHLY   0YZAR   LIM          Sweet Sleep Funerals          2351          N00                                                                        F                              
AOMGBS0009989000000            6320050000000000012345678912014-09-29          000001547029MPREMLIMYGS   N00000000DEBITORDERMONTHLY   0YZAR   LIM          Wellington Funerals           2351          N00                                                                        F                              
NOMGBS0009990000000            6320050000000000012345678912014-09-29          000001547029MPREMLIMYGS   N00000000DEBITORDERMONTHLY   0YZAR   LIM          Swartland Funerals            2351          N00                                                                        F                              
TTOTZZZZZZZZZZZZZZZ                                                                                                                                                                                     00000594400000040000000000000000000000000000000000000000000000000000G                               
AOMGBS-000801700000            6320050000000000921643242822014-09-30          000011880030MPREMLIMYGS   N00000000DEBITORDERMONTHLY   0YZAR   LIM          MASITHEMBANE  SAVERS CLUB     2351          N00                                                                        F                              
AOMGGFS-00005300000            0510010000000000024070518112014-09-30          000388367231MPREMLIMYGS   N00000000DEBITORDERMONTHLY   0YZAR   LIM          MAUDE'S FUNERAL PLANS         2351          N00                                                                        F                              
NOMGGFS-00011300000            6320050000000000914695744722014-09-30          000092725031MPREMLIMYGS   N00000000DEBITORDERMONTHLY   0YZAR   LIM          KWANELE BURIAL SOCIETY        2351          N00                                                                        F                              
NOMGBS0010036000000            6320050000000000012345678912014-09-30          000001547030MPREMLIMYGS   N00000000DEBITORDERMONTHLY   0YZAR   LIM          Fairways Funerals             2351          N00                                                                        F                              
DOMGGFS-00023900000            0510010000000000006179377912014-09-25          000000000031MPREMLIMYGS   N00000000DEBITORDERMONTHLY   0YZAR   LIM          MZONELI BURIAL CLUB           2351          N00                                                                        F                              
DOMGGFS-00001000000            0510010000000000004207959412014-09-25          000000000030MPREMLIMYGS   N00000000DEBITORDERMONTHLY   0YZAR   LIM          PHAHANA                       2351          N00                                                                        F                              
TTOTZZZZZZZZZZZZZZZ                                                                                                                                                                                     00049451920000060000000000000000000000000000000000000000000000000000G                               
DOMGBS0010036000000            6320050000000000012345678912014-11-30          000001547030MPREMLIMYGS   N00000000DEBITORDERMONTHLY   0YZAR   LIM          Fairways Funerals             2351          N00                                                                        F                              
NOMGBS0010036000000            6320050000000000012345678912014-11-30          000001547030MPREMLIMYGS   N00000000DEBITORDERMONTHLY   0YZAR   LIM          Fairways Funerals             2351          N00                                                                        F                              
AOMGGFS-00004900000            6320050000000000012345678922014-12-01          000647588501MPREMLIMYGS   N00000000DEBITORDERMONTHLY   0YZAR   LIM          THUSHONG FUNERAL SCHEME       2351          N00                                                                        F                              
AOMGBS0009980000000            6320050000000000012345678912014-11-29          000120666029MPREMLIMYGS   N00000000DEBITORDERMONTHLY   0YZAR   LIM          Peters FD                     2351          N00                                                                        F                              
AOMGBS0009962000000            6320050000000000012345678912014-12-01          000343980001MPREMLIMYGS   N00000000DEBITORDERMONTHLY   0YZAR   LIM          Osmosis Funerals              2351          N00                                                                        F                              
AOMGBS0009966000000            6320050000000000012345678912014-12-01          000001425001MPREMLIMYGS   N00000000DEBITORDERMONTHLY   0YZAR   LIM          Clowers Funerals              2351          N00                                                                        F                              
AOMGGFS-00161400000            6320050000000000012345678912014-12-01          000003834001MPREMLIMYGS   N00000000DEBITORDERMONTHLY   0YZAR   LIM          Boney FS                      2351          N00                                                                        F                              
AOMGBS0009994000000            6320050000000000012345678912014-12-01          000001547001MPREMLIMYGS   N00000000DEBITORDERMONTHLY   0YZAR   LIM          Korsten Funerals              2351          N00                                                                        F                              
AOMGBS0009987000000            6320050000000000012345678912014-11-29          000001547029MPREMLIMYGS   N00000000DEBITORDERMONTHLY   0YZAR   LIM          Old Kids Funerals             2351          N00                                                                        F                              
AOMGBS0009985000000            6320050000000000012345678912014-12-01          000001547001MPREMLIMYGS   N00000000DEBITORDERMONTHLY   0YZAR   LIM          Albany FD                     2351          N00                                                                        F                              
AOMGBS-000990700000            6320050000000000012345678912014-12-01          000003510001MPREMLIMYGS   N00000000DEBITORDERMONTHLY   0YZAR   LIM          Jones Hope Funerals           2351          N00                                                                        F                              
AOMGBS0009986000000            6320050000000000012345678912014-11-29          000001547029MPREMLIMYGS   N00000000DEBITORDERMONTHLY   0YZAR   LIM          New Kids Funerals             2351          N00                                                                        F                              
DOMGBS0009993000000            6320050000000000012345678912014-11-26          000000000001MPREMLIMYGS   N00000000DEBITORDERMONTHLY   0YZAR   LIM          Cotsworld Funerals            2351          N00                                                                        F                              
TTOTZZZZZZZZZZZZZZZ                                                                                                                                                                                     00113028500000130000000000000000000000000000000000000000000000000000G                               
NOMGBS0010037000000            6320050000000000012345678912014-09-30          000001963030MPREMLIMYGS   N00000000DEBITORDERMONTHLY   0YZAR   LIM          Houtbay Funerals              2351          N00                                                                        F                              
TTOTZZZZZZZZZZZZZZZ                                                                                                                                                                                     00000196300000010000000000000000000000000000000000000000000000000000G                               
NOMGBS0010038000000            6320050000000000012345678912014-09-30          000001963030MPREMLIMYGS   N00000000DEBITORDERMONTHLY   0YZAR   LIM          Sandybay Funerals             2351          N00                                                                        F                              
DOMGBS0010037000000            6320050000000000012345678912014-09-25          000000000030MPREMLIMYGS   N00000000DEBITORDERMONTHLY   0YZAR   LIM          Houtbay Funerals              2351          N00                                                                        F                              
TTOTZZZZZZZZZZZZZZZ                                                                                                                                                                                     00000196300000020000000000000000000000000000000000000000000000000000G                               
NOMGBS0010039000000            6320050000000000012345678912014-09-30          000001963030MPREMLIMYGS   N00000000DEBITORDERMONTHLY   0YZAR   LIM          Gordonsbay Funerals           2351          N00                                                                        F                              
DOMGBS0010037000000            6320050000000000012345678912014-09-25          000000000030MPREMLIMYGS   N00000000DEBITORDERMONTHLY   0YZAR   LIM          Houtbay Funerals              2351          N00                                                                        F                              
DOMGBS0010038000000            6320050000000000012345678912014-09-25          000000000030MPREMLIMYGS   N00000000DEBITORDERMONTHLY   0YZAR   LIM          Sandybay Funerals             2351          N00                                                                        F                              
TTOTZZZZZZZZZZZZZZZ                                                                                                                                                                                     00000196300000030000000000000000000000000000000000000000000000000000G                               
DOMGBS0010037000000            6320050000000000012345678912014-09-26          000000000030MPREMLIMYGS   N00000000DEBITORDERMONTHLY   0YZAR   LIM          Houtbay Funerals              2351          N00                                                                        F                              
DOMGBS0010039000000            6320050000000000012345678912014-09-26          000000000030MPREMLIMYGS   N00000000DEBITORDERMONTHLY   0YZAR   LIM          Gordonsbay Funerals           2351          N00                                                                        F                              
DOMGBS0010038000000            6320050000000000012345678912014-09-26          000000000030MPREMLIMYGS   N00000000DEBITORDERMONTHLY   0YZAR   LIM          Sandybay Funerals             2351          N00                                                                        F                              
TTOTZZZZZZZZZZZZZZZ                                                                                                                                                                                     00000000000000030000000000000000000000000000000000000000000000000000G                               
NOMGBS0010040000000            6320050000000000012345678912014-09-30          000001547030MPREMLIMYGS   N00000000DEBITORDERMONTHLY   0YZAR   LIM          Swarts Funerals               2351          N00                                                                        F                              
DOMGBS0010037000000            6320050000000000012345678912014-09-25          000000000030MPREMLIMYGS   N00000000DEBITORDERMONTHLY   0YZAR   LIM          Houtbay Funerals              2351          N00                                                                        F                              
DOMGBS0010039000000            6320050000000000012345678912014-09-25          000000000030MPREMLIMYGS   N00000000DEBITORDERMONTHLY   0YZAR   LIM          Gordonsbay Funerals           2351          N00                                                                        F                              
DOMGBS0010038000000            6320050000000000012345678912014-09-25          000000000030MPREMLIMYGS   N00000000DEBITORDERMONTHLY   0YZAR   LIM          Sandybay Funerals             2351          N00                                                                        F                              
TTOTZZZZZZZZZZZZZZZ                                                                                                                                                                                     00000154700000040000000000000000000000000000000000000000000000000000G                               
NOMGBS0010042000000            6320050000000000012345678912014-09-30          000001963030MPREMLIMYGS   N00000000DEBITORDERMONTHLY   0YZAR   LIM          Strand Funerals               2351          N00                                                                        F                              
DOMGBS0010037000000            6320050000000000012345678912014-09-25          000000000030MPREMLIMYGS   N00000000DEBITORDERMONTHLY   0YZAR   LIM          Houtbay Funerals              2351          N00                                                                        F                              
DOMGBS0010038000000            6320050000000000012345678912014-09-25          000000000030MPREMLIMYGS   N00000000DEBITORDERMONTHLY   0YZAR   LIM          Sandybay Funerals             2351          N00                                                                        F                              
DOMGBS0010039000000            6320050000000000012345678912014-09-25          000000000030MPREMLIMYGS   N00000000DEBITORDERMONTHLY   0YZAR   LIM          Gordonsbay Funerals           2351          N00                                                                        F                              
TTOTZZZZZZZZZZZZZZZ                                                                                                                                                                                     00000196300000040000000000000000000000000000000000000000000000000000G                               
NOMGBS0010043000000            6320050000000000012345678912014-09-30          000001963030MPREMLIMYGS   N00000000DEBITORDERMONTHLY   0YZAR   LIM          Mitchells Funerals            2351          N00                                                                        F                              
DOMGBS0010037000000            6320050000000000012345678912014-09-25          000000000030MPREMLIMYGS   N00000000DEBITORDERMONTHLY   0YZAR   LIM          Houtbay Funerals              2351          N00                                                                        F                              
DOMGBS0010038000000            6320050000000000012345678912014-09-25          000000000030MPREMLIMYGS   N00000000DEBITORDERMONTHLY   0YZAR   LIM          Sandybay Funerals             2351          N00                                                                        F                              
DOMGBS0010039000000            6320050000000000012345678912014-09-25          000000000030MPREMLIMYGS   N00000000DEBITORDERMONTHLY   0YZAR   LIM          Gordonsbay Funerals           2351          N00                                                                        F                              
TTOTZZZZZZZZZZZZZZZ                                                                                                                                                                                     00000196300000040000000000000000000000000000000000000000000000000000G                               
NOMGBS0010044000000            6320050000000000012345678912014-09-30          000001963030MPREMLIMYGS   N00000000DEBITORDERMONTHLY   0YZAR   LIM          Sugar Funerals                2351          N00                                                                        F                              
DOMGBS0010039000000            6320050000000000012345678912014-09-25          000000000030MPREMLIMYGS   N00000000DEBITORDERMONTHLY   0YZAR   LIM          Gordonsbay Funerals           2351          N00                                                                        F                              
DOMGBS0010043000000            6320050000000000012345678912014-09-30          000001547030MPREMLIMYGS   N00000000DEBITORDERMONTHLY   0YZAR   LIM          Mitchells Funerals            2351          N00                                                                        F                              
DOMGBS0010037000000            6320050000000000012345678912014-09-25          000000000030MPREMLIMYGS   N00000000DEBITORDERMONTHLY   0YZAR   LIM          Houtbay Funerals              2351          N00                                                                        F                              
DOMGBS0010038000000            6320050000000000012345678912014-09-25          000000000030MPREMLIMYGS   N00000000DEBITORDERMONTHLY   0YZAR   LIM          Sandybay Funerals             2351          N00                                                                        F                              
TTOTZZZZZZZZZZZZZZZ                                                                                                                                                                                     00000351000000050000000000000000000000000000000000000000000000000000G                               
DOMGBS0010044000000            6320050000000000012345678912014-09-30          000001547030MPREMLIMYGS   N00000000DEBITORDERMONTHLY   0YZAR   LIM          Sugar Funerals                2351          N00                                                                        F                              
TTOTZZZZZZZZZZZZZZZ                                                                                                                                                                                     00000154700000010000000000000000000000000000000000000000000000000000G                               
NOMGBS0010550000000            6320050000000000012345678912014-10-04          000001963004MPREMLIMYGS   N00000000DEBITORDERMONTHLY   0YZAR   LIM          Durbs Funerals                2351          N00                                                                        F                              
TTOTZZZZZZZZZZZZZZZ                                                                                                                                                                                     00000196300000010000000000000000000000000000000000000000000000000000G                               
AOMGBS0010022000000            6320050000000000012345678912014-10-08          000922012008MPREMLIMYGS   N00000000DEBITORDERMONTHLY   0YZAR   LIM          Mission Possible Funerals     2351          N00                                                                        F                              
NOMGBS0010046000000            6320050000000000012345678912014-10-08          000001963008MPREMLIMYGS   N00000000DEBITORDERMONTHLY   0YZAR   LIM          Durbs Funerals                2351          N00                                                                        F                              
TTOTZZZZZZZZZZZZZZZ                                                                                                                                                                                     00092397500000020000000000000000000000000000000000000000000000000000G                               
AOMGBS0010046000000            6320050000000000012345678912014-11-08          000001547008MPREMLIMYGS   N00000000DEBITORDERMONTHLY   0YZAR   LIM          Durbs Funerals                2351          N00                                                                        F                              
TTOTZZZZZZZZZZZZZZZ                                                                                                                                                                                     00000154700000010000000000000000000000000000000000000000000000000000G                               
AOMGGFS-00061900000            6320050000000000916603548922014-12-07          000044327007MPREMLIMYGS   N00000000DEBITORDERMONTHLY   0YZAR   LIM          Oupas Funeral Services        2351          N00                                                                        F                              
AOMGBS0010022000000            6320050000000000012345678912014-12-08          000922012008MPREMLIMYGS   N00000000DEBITORDERMONTHLY   0YZAR   LIM          Mission Possible Funerals     2351          N00                                                                        F                              
NOMGBS0010020000000            6320050000000000012345678912014-12-07          000025168007MPREMLIMYGS   N00000000DEBITORDERMONTHLY   0YZAR   LIM          Southern Funerals             2351          N00                                                                        F                              
NOMGBS0010009000000            6320050000000000012345678912014-12-06          000001963006MPREMLIMYGS   N00000000DEBITORDERMONTHLY   0YZAR   LIM          Dark Days Funerals            2351          N00                                                                        F                              
NOMGBS0010012000000            6320050000000000012345678912014-12-06          000001963006MPREMLIMYGS   N00000000DEBITORDERMONTHLY   0YZAR   LIM          Capes Times Funerals          2351          N00                                                                        F                              
NOMGBS0010019000000            6320050000000000012345678912014-12-07          000003510007MPREMLIMYGS   N00000000DEBITORDERMONTHLY   0YZAR   LIM          Northerns Funerals            2351          N00                                                                        F                              
NOMGBS0010014000000            6320050000000000012345678912014-12-06          000001963006MPREMLIMYGS   N00000000DEBITORDERMONTHLY   0YZAR   LIM          Table Mountain Funerals       2351          N00                                                                        F                              
NOMGBS0010013000000            6320050000000000012345678912014-12-06          000001963006MPREMLIMYGS   N00000000DEBITORDERMONTHLY   0YZAR   LIM          Capes Hopes Funerals          2351          N00                                                                        F                              
DOMGBS0010046000000            6320050000000000012345678912014-12-03          000000000008MPREMLIMYGS   N00000000DEBITORDERMONTHLY   0YZAR   LIM          Durbs Funerals                2351          N00                                                                        F                              
TTOTZZZZZZZZZZZZZZZ                                                                                                                                                                                     00100286900000090000000000000000000000000000000000000000000000000000G                               
NOMGBS0010048000000            6320050000000000012345678912014-10-10          000001963010MPREMLIMYGS   N00000000DEBITORDERMONTHLY   0YZAR   LIM          Durbs Funerals                2351          N00                                                                        F                              
NOMGBS0010047000000            0510010000000000067604173612014-10-10          000000198010MPREMLIMYGS   N00000000DEBITORDERMONTHLY   0YZAR   LIM          BRON CB 7                     2351          N00                                                                        F                              
TTOTZZZZZZZZZZZZZZZ                                                                                                                                                                                     00000216100000020000000000000000000000000000000000000000000000000000G                               
DOMGBS0010048000000            6320050000000000012345678912014-11-05          000000000010MPREMLIMYGS   N00000000DEBITORDERMONTHLY   0YZAR   LIM          Durbs Funerals                2351          N00                                                                        F                              
TTOTZZZZZZZZZZZZZZZ                                                                                                                                                                                     00000000000000010000000000000000000000000000000000000000000000000000G                               
NOMGGFS001863000000            0510010000000000067604173612014-09-11          000000141011MPREMLIMYGS   N00000000DEBITORDERMONTHLY   0YZAR   LIM          Bron CB 6                     2351          N00                                                                        F                              
NOMGBS0010049000000            6320050000000000012345678912014-09-11          000001963011MPREMLIMYGS   N00000000DEBITORDERMONTHLY   0YZAR   LIM          Mona Funerals                 2351          N00                                                                        F                              
DOMGBS0010039000000            6320050000000000012345678912014-09-08          000000000030MPREMLIMYGS   N00000000DEBITORDERMONTHLY   0YZAR   LIM          Gordonsbay Funerals           2351          N00                                                                        F                              
DOMGBS0010037000000            6320050000000000012345678912014-09-08          000000000030MPREMLIMYGS   N00000000DEBITORDERMONTHLY   0YZAR   LIM          Houtbay Funerals              2351          N00                                                                        F                              
DOMGBS0010038000000            6320050000000000012345678912014-09-08          000000000030MPREMLIMYGS   N00000000DEBITORDERMONTHLY   0YZAR   LIM          Sandybay Funerals             2351          N00                                                                        F                              
TTOTZZZZZZZZZZZZZZZ                                                                                                                                                                                     00000210400000050000000000000000000000000000000000000000000000000000G                               
NOMGGFS001864000000            6320050000000000012345678912013-08-23          000178890023MPREMLIMYGS   N00000000DEBITORDERMONTHLY   0YZAR   LIM          Merna Funerals                2351          N00                                                                        F                              
TTOTZZZZZZZZZZZZZZZ                                                                                                                                                                                     00017889000000010000000000000000000000000000000000000000000000000000G                               
AOMGGFS-00029100000            0510010000000000016600795122013-09-22          000000000022MPREMLIMYGS   N00000000DEBITORDERMONTHLY   0YZAR   LIM          MASIVANE BURIAL SOCIETY       2351          N00                                                                        F                              
TTOTZZZZZZZZZZZZZZZ                                                                                                                                                                                     00000000000000010000000000000000000000000000000000000000000000000000G                               
AOMGBS-000800600000            0510010000000000014452297722013-11-25          000563442025MPREMLIMYGS   N00000000DEBITORDERMONTHLY   0YZAR   LIM          HELPING HANDS BURIAL SOCIETY 12351          N00                                                                        F                              
AOMGGFS-00178900000            6320050000000000012345678912013-11-24          003349200024MPREMLIMYGS   N00000000DEBITORDERMONTHLY   0YZAR   LIM          Cobie Funerals                2351          N00                                                                        F                              
AOMGBS0010049000000            6320050000000000012345678912013-11-24          001001130024MPREMLIMYGS   N00000000DEBITORDERMONTHLY   0YZAR   LIM          Mona Funerals                 2351          N00                                                                        F                              
AOMGBS-000967300000            0510010000000000040735788222013-11-25          000029824025MPREMLIMYGS   N00000000DEBITORDERMONTHLY   0YZAR   LIM          Bakgone Womens Club           2351          N00                                                                        F                              
NOMGBS0009934000000            6320050000000000012345678912013-11-24          000829350024MPREMLIMYGS   N00000000DEBITORDERMONTHLY   0YZAR   LIM          Roux Funerals                 2351          N00                                                                        F                              
DOMGGFS-00020100000            0510010000000000006173581712013-11-20          000000000025MPREMLIMYGS   N00000000DEBITORDERMONTHLY   0YZAR   LIM          GXALABA F/S                   2351          N00                                                                        F                              
TTOTZZZZZZZZZZZZZZZ                                                                                                                                                                                     00577294600000060000000000000000000000000000000000000000000000000000G                               
AOMGGFS-00029100000            0510010000000000016600795122013-12-22          000000000022MPREMLIMYGS   N00000000DEBITORDERMONTHLY   0YZAR   LIM          MASIVANE BURIAL SOCIETY       2351          N00                                                                        F                              
TTOTZZZZZZZZZZZZZZZ                                                                                                                                                                                     00000000000000010000000000000000000000000000000000000000000000000000G                               
AOMGGFS-00029100000            0510010000000000016600795122014-02-22          000000000022MPREMLIMYGS   N00000000DEBITORDERMONTHLY   0YZAR   LIM          MASIVANE BURIAL SOCIETY       2351          N00                                                                        F                              
AOMGGFS-00178900000            6320050000000000012345678912014-02-24          003349200024MPREMLIMYGS   N00000000DEBITORDERMONTHLY   0YZAR   LIM          Cobie Funerals                2351          N00                                                                        F                              
NOMGBS0009934000000            6320050000000000012345678912014-02-24          000829350024MPREMLIMYGS   N00000000DEBITORDERMONTHLY   0YZAR   LIM          Roux Funerals                 2351          N00                                                                        F                              
TTOTZZZZZZZZZZZZZZZ                                                                                                                                                                                     00417855000000030000000000000000000000000000000000000000000000000000G                               
AOMGGFS-00029100000            0510010000000000016600795122014-03-22          000000000022MPREMLIMYGS   N00000000DEBITORDERMONTHLY   0YZAR   LIM          MASIVANE BURIAL SOCIETY       2351          N00                                                                        F                              
AOMGGFS-00178900000            6320050000000000012345678912014-03-24          003349200024MPREMLIMYGS   N00000000DEBITORDERMONTHLY   0YZAR   LIM          Cobie Funerals                2351          N00                                                                        F                              
NOMGBS0009934000000            6320050000000000012345678912014-03-24          000829350024MPREMLIMYGS   N00000000DEBITORDERMONTHLY   0YZAR   LIM          Roux Funerals                 2351          N00                                                                        F                              
TTOTZZZZZZZZZZZZZZZ                                                                                                                                                                                     00417855000000030000000000000000000000000000000000000000000000000000G                               
AOMGGFS-00029100000            0510010000000000016600795122014-06-22          000000000022MPREMLIMYGS   N00000000DEBITORDERMONTHLY   0YZAR   LIM          MASIVANE BURIAL SOCIETY       2351          N00                                                                        F                              
TTOTZZZZZZZZZZZZZZZ                                                                                                                                                                                     00000000000000010000000000000000000000000000000000000000000000000000G                               
DOMGBS0009944000000            6320050000000000012345678912014-07-18          000000000026MPREMLIMYGS   N00000000DEBITORDERMONTHLY   0YZAR   LIM          Kuilsriver Funerals           2351          N00                                                                        F                              
TTOTZZZZZZZZZZZZZZZ                                                                                                                                                                                     00000000000000010000000000000000000000000000000000000000000000000000G                               
AOMGBS-000800600000            0510010000000000014452297722014-08-25          000563442025MPREMLIMYGS   N00000000DEBITORDERMONTHLY   0YZAR   LIM          HELPING HANDS BURIAL SOCIETY 12351          N00                                                                        F                              
AOMGGFS-00178900000            6320050000000000012345678912014-08-24          003349200024MPREMLIMYGS   N00000000DEBITORDERMONTHLY   0YZAR   LIM          Cobie Funerals                2351          N00                                                                        F                              
AOMGBS-000967300000            0510010000000000040735788222014-08-25          000029824025MPREMLIMYGS   N00000000DEBITORDERMONTHLY   0YZAR   LIM          Bakgone Womens Club           2351          N00                                                                        F                              
NOMGBS0009934000000            6320050000000000012345678912014-08-24          000829350024MPREMLIMYGS   N00000000DEBITORDERMONTHLY   0YZAR   LIM          Roux Funerals                 2351          N00                                                                        F                              
DOMGGFS-00020100000            0510010000000000006173581712014-08-20          000000000025MPREMLIMYGS   N00000000DEBITORDERMONTHLY   0YZAR   LIM          GXALABA F/S                   2351          N00                                                                        F                              
TTOTZZZZZZZZZZZZZZZ                                                                                                                                                                                     00477181600000050000000000000000000000000000000000000000000000000000G                               
DOMGBS0010039000000            6320050000000000012345678912014-09-18          000000000030MPREMLIMYGS   N00000000DEBITORDERMONTHLY   0YZAR   LIM          Gordonsbay Funerals           2351          N00                                                                        F                              
DOMGBS0010037000000            6320050000000000012345678912014-09-18          000000000030MPREMLIMYGS   N00000000DEBITORDERMONTHLY   0YZAR   LIM          Houtbay Funerals              2351          N00                                                                        F                              
DOMGBS0010038000000            6320050000000000012345678912014-09-18          000000000030MPREMLIMYGS   N00000000DEBITORDERMONTHLY   0YZAR   LIM          Sandybay Funerals             2351          N00                                                                        F                              
TTOTZZZZZZZZZZZZZZZ                                                                                                                                                                                     00000000000000030000000000000000000000000000000000000000000000000000G                               
AOMGBS-000800600000            0510010000000000014452297722013-09-25          000563442025MPREMLIMYGS   N00000000DEBITORDERMONTHLY   0YZAR   LIM          HELPING HANDS BURIAL SOCIETY 12351          N00                                                                        F                              
AOMGGFS-00178900000            6320050000000000012345678912013-09-24          003349200024MPREMLIMYGS   N00000000DEBITORDERMONTHLY   0YZAR   LIM          Cobie Funerals                2351          N00                                                                        F                              
AOMGBS-000967300000            0510010000000000040735788222013-09-25          000029824025MPREMLIMYGS   N00000000DEBITORDERMONTHLY   0YZAR   LIM          Bakgone Womens Club           2351          N00                                                                        F                              
DOMGGFS-00020100000            0510010000000000006173581712013-09-19          000000000025MPREMLIMYGS   N00000000DEBITORDERMONTHLY   0YZAR   LIM          GXALABA F/S                   2351          N00                                                                        F                              
TTOTZZZZZZZZZZZZZZZ                                                                                                                                                                                     00394246600000040000000000000000000000000000000000000000000000000000G                               
AOMGGFS-00178900000            6320050000000000012345678912013-10-24          003349200024MPREMLIMYGS   N00000000DEBITORDERMONTHLY   0YZAR   LIM          Cobie Funerals                2351          N00                                                                        F                              
TTOTZZZZZZZZZZZZZZZ                                                                                                                                                                                     00334920000000010000000000000000000000000000000000000000000000000000G                               
AOMGBS-000800600000            0510010000000000014452297722013-11-25          000563442025MPREMLIMYGS   N00000000DEBITORDERMONTHLY   0YZAR   LIM          HELPING HANDS BURIAL SOCIETY 12351          N00                                                                        F                              
AOMGBS-000967300000            0510010000000000040735788222013-11-25          000029824025MPREMLIMYGS   N00000000DEBITORDERMONTHLY   0YZAR   LIM          Bakgone Womens Club           2351          N00                                                                        F                              
AOMGGFS-00178900000            6320050000000000012345678912013-11-24          003349200024MPREMLIMYGS   N00000000DEBITORDERMONTHLY   0YZAR   LIM          Cobie Funerals                2351          N00                                                                        F                              
DOMGGFS-00020100000            0510010000000000006173581712013-11-20          000000000025MPREMLIMYGS   N00000000DEBITORDERMONTHLY   0YZAR   LIM          GXALABA F/S                   2351          N00                                                                        F                              
TTOTZZZZZZZZZZZZZZZ                                                                                                                                                                                     00394246600000040000000000000000000000000000000000000000000000000000G                               
AOMGGFS-00178900000            6320050000000000012345678912013-12-24          003349200024MPREMLIMYGS   N00000000DEBITORDERMONTHLY   0YZAR   LIM          Cobie Funerals                2351          N00                                                                        F                              
TTOTZZZZZZZZZZZZZZZ                                                                                                                                                                                     00334920000000010000000000000000000000000000000000000000000000000000G                               
AOMGGFS-00178900000            6320050000000000012345678912014-01-24          003349200024MPREMLIMYGS   N00000000DEBITORDERMONTHLY   0YZAR   LIM          Cobie Funerals                2351          N00                                                                        F                              
TTOTZZZZZZZZZZZZZZZ                                                                                                                                                                                     00334920000000010000000000000000000000000000000000000000000000000000G                               
AOMGGFS-00029100000            0510010000000000016600795122014-02-22          000000000022MPREMLIMYGS   N00000000DEBITORDERMONTHLY   0YZAR   LIM          MASIVANE BURIAL SOCIETY       2351          N00                                                                        F                              
AOMGGFS-00178900000            6320050000000000012345678912014-02-24          003349200024MPREMLIMYGS   N00000000DEBITORDERMONTHLY   0YZAR   LIM          Cobie Funerals                2351          N00                                                                        F                              
TTOTZZZZZZZZZZZZZZZ                                                                                                                                                                                     00334920000000020000000000000000000000000000000000000000000000000000G                               
AOMGGFS-00029100000            0510010000000000016600795122014-03-22          000000000022MPREMLIMYGS   N00000000DEBITORDERMONTHLY   0YZAR   LIM          MASIVANE BURIAL SOCIETY       2351          N00                                                                        F                              
AOMGGFS-00178900000            6320050000000000012345678912014-03-24          003349200024MPREMLIMYGS   N00000000DEBITORDERMONTHLY   0YZAR   LIM          Cobie Funerals                2351          N00                                                                        F                              
TTOTZZZZZZZZZZZZZZZ                                                                                                                                                                                     00334920000000020000000000000000000000000000000000000000000000000000G                               
AOMGGFS-00178900000            6320050000000000012345678912014-04-24          003349200024MPREMLIMYGS   N00000000DEBITORDERMONTHLY   0YZAR   LIM          Cobie Funerals                2351          N00                                                                        F                              
TTOTZZZZZZZZZZZZZZZ                                                                                                                                                                                     00334920000000010000000000000000000000000000000000000000000000000000G                               
AOMGBS-000800600000            0510010000000000014452297722014-05-25          000563442025MPREMLIMYGS   N00000000DEBITORDERMONTHLY   0YZAR   LIM          HELPING HANDS BURIAL SOCIETY 12351          N00                                                                        F                              
AOMGGFS-00178900000            6320050000000000012345678912014-05-24          003349200024MPREMLIMYGS   N00000000DEBITORDERMONTHLY   0YZAR   LIM          Cobie Funerals                2351          N00                                                                        F                              
AOMGBS-000967300000            0510010000000000040735788222014-05-25          000029824025MPREMLIMYGS   N00000000DEBITORDERMONTHLY   0YZAR   LIM          Bakgone Womens Club           2351          N00                                                                        F                              
DOMGGFS-00020100000            0510010000000000006173581712014-05-21          000000000025MPREMLIMYGS   N00000000DEBITORDERMONTHLY   0YZAR   LIM          GXALABA F/S                   2351          N00                                                                        F                              
TTOTZZZZZZZZZZZZZZZ                                                                                                                                                                                     00394246600000040000000000000000000000000000000000000000000000000000G                               
AOMGGFS-00178900000            6320050000000000012345678912014-07-24          003349200024MPREMLIMYGS   N00000000DEBITORDERMONTHLY   0YZAR   LIM          Cobie Funerals                2351          N00                                                                        F                              
DOMGBS0009944000000            6320050000000000012345678912014-07-21          000000000026MPREMLIMYGS   N00000000DEBITORDERMONTHLY   0YZAR   LIM          Kuilsriver Funerals           2351          N00                                                                        F                              
TTOTZZZZZZZZZZZZZZZ                                                                                                                                                                                     00334920000000020000000000000000000000000000000000000000000000000000G                               
AOMGBS-000800600000            0510010000000000014452297722014-08-25          000563442025MPREMLIMYGS   N00000000DEBITORDERMONTHLY   0YZAR   LIM          HELPING HANDS BURIAL SOCIETY 12351          N00                                                                        F                              
AOMGGFS-00178900000            6320050000000000012345678912014-08-24          003349200024MPREMLIMYGS   N00000000DEBITORDERMONTHLY   0YZAR   LIM          Cobie Funerals                2351          N00                                                                        F                              
AOMGBS-000967300000            0510010000000000040735788222014-08-25          000029824025MPREMLIMYGS   N00000000DEBITORDERMONTHLY   0YZAR   LIM          Bakgone Womens Club           2351          N00                                                                        F                              
DOMGGFS-00020100000            0510010000000000006173581712014-08-20          000000000025MPREMLIMYGS   N00000000DEBITORDERMONTHLY   0YZAR   LIM          GXALABA F/S                   2351          N00                                                                        F                              
TTOTZZZZZZZZZZZZZZZ                                                                                                                                                                                     00394246600000040000000000000000000000000000000000000000000000000000G                               
DOMGGFS-00020100000            0510010000000000006173581712014-09-19          000000000025MPREMLIMYGS   N00000000DEBITORDERMONTHLY   0YZAR   LIM          GXALABA F/S                   2351          N00                                                                        F                              
DOMGBS0010039000000            6320050000000000012345678912014-09-19          000000000030MPREMLIMYGS   N00000000DEBITORDERMONTHLY   0YZAR   LIM          Gordonsbay Funerals           2351          N00                                                                        F                              
DOMGBS0010037000000            6320050000000000012345678912014-09-19          000000000030MPREMLIMYGS   N00000000DEBITORDERMONTHLY   0YZAR   LIM          Houtbay Funerals              2351          N00                                                                        F                              
DOMGBS0010038000000            6320050000000000012345678912014-09-19          000000000030MPREMLIMYGS   N00000000DEBITORDERMONTHLY   0YZAR   LIM          Sandybay Funerals             2351          N00                                                                        F                              
TTOTZZZZZZZZZZZZZZZ                                                                                                                                                                                     00000000000000040000000000000000000000000000000000000000000000000000G                               
NOMGGFS001866000000            6320050000000000012345678912013-09-26          000000611026MPREMLIMYGS   N00000000DEBITORDERMONTHLY   0YZAR   LIM          Aldo Funerals                 2351          N00                                                                        F                              
TTOTZZZZZZZZZZZZZZZ                                                                                                                                                                                     00000061100000010000000000000000000000000000000000000000000000000000G                               
AOMGGFS001866000000            6320050000000000012345678912013-10-26          000244016026MPREMLIMYGS   N00000000DEBITORDERMONTHLY   0YZAR   LIM          Aldo Funerals                 2351          N00                                                                        F                              
AOMGBS0010027000000            6320050000000000012345678912013-10-27          000001425027MPREMLIMYGS   N00000000DEBITORDERMONTHLY   0YZAR   LIM          Sweet Sleep Funerals          2351          N00                                                                        F                              
NOMGBS0010034000000            6320050000000000012345678912013-10-27          000001755027MPREMLIMYGS   N00000000DEBITORDERMONTHLY   0YZAR   LIM          Rondebosch Funeral Directors  2351          N00                                                                        F                              
TTOTZZZZZZZZZZZZZZZ                                                                                                                                                                                     00024719600000030000000000000000000000000000000000000000000000000000G                               
AOMGBS-000800600000            0510010000000000014452297722013-12-25          000563442025MPREMLIMYGS   N00000000DEBITORDERMONTHLY   0YZAR   LIM          HELPING HANDS BURIAL SOCIETY 12351          N00                                                                        F                              
AOMGBS-000967300000            0510010000000000040735788222013-12-25          000029824025MPREMLIMYGS   N00000000DEBITORDERMONTHLY   0YZAR   LIM          Bakgone Womens Club           2351          N00                                                                        F                              
AOMGBS0010027000000            6320050000000000012345678912013-12-27          000001425027MPREMLIMYGS   N00000000DEBITORDERMONTHLY   0YZAR   LIM          Sweet Sleep Funerals          2351          N00                                                                        F                              
NOMGBS0010034000000            6320050000000000012345678912013-12-27          000001755027MPREMLIMYGS   N00000000DEBITORDERMONTHLY   0YZAR   LIM          Rondebosch Funeral Directors  2351          N00                                                                        F                              
DOMGGFS-00020100000            0510010000000000006173581712013-12-20          000000000025MPREMLIMYGS   N00000000DEBITORDERMONTHLY   0YZAR   LIM          GXALABA F/S                   2351          N00                                                                        F                              
TTOTZZZZZZZZZZZZZZZ                                                                                                                                                                                     00059644600000050000000000000000000000000000000000000000000000000000G                               
AOMGBS-000800600000            0510010000000000014452297722014-01-25          000563442025MPREMLIMYGS   N00000000DEBITORDERMONTHLY   0YZAR   LIM          HELPING HANDS BURIAL SOCIETY 12351          N00                                                                        F                              
AOMGBS-000967300000            0510010000000000040735788222014-01-25          000029824025MPREMLIMYGS   N00000000DEBITORDERMONTHLY   0YZAR   LIM          Bakgone Womens Club           2351          N00                                                                        F                              
AOMGBS0010027000000            6320050000000000012345678912014-01-27          000001425027MPREMLIMYGS   N00000000DEBITORDERMONTHLY   0YZAR   LIM          Sweet Sleep Funerals          2351          N00                                                                        F                              
NOMGBS0010034000000            6320050000000000012345678912014-01-27          000001755027MPREMLIMYGS   N00000000DEBITORDERMONTHLY   0YZAR   LIM          Rondebosch Funeral Directors  2351          N00                                                                        F                              
DOMGGFS-00020100000            0510010000000000006173581712014-01-22          000000000025MPREMLIMYGS   N00000000DEBITORDERMONTHLY   0YZAR   LIM          GXALABA F/S                   2351          N00                                                                        F                              
TTOTZZZZZZZZZZZZZZZ                                                                                                                                                                                     00059644600000050000000000000000000000000000000000000000000000000000G                               
AOMGBS0010027000000            6320050000000000012345678912014-04-27          000001425027MPREMLIMYGS   N00000000DEBITORDERMONTHLY   0YZAR   LIM          Sweet Sleep Funerals          2351          N00                                                                        F                              
AOMGGFS001866000000            6320050000000000012345678912014-04-26          000240256026MPREMLIMYGS   N00000000DEBITORDERMONTHLY   0YZAR   LIM          Aldo Funerals                 2351          N00                                                                        F                              
NOMGBS0010034000000            6320050000000000012345678912014-04-27          000001755027MPREMLIMYGS   N00000000DEBITORDERMONTHLY   0YZAR   LIM          Rondebosch Funeral Directors  2351          N00                                                                        F                              
TTOTZZZZZZZZZZZZZZZ                                                                                                                                                                                     00024343600000030000000000000000000000000000000000000000000000000000G                               
AOMGBS-000800600000            0510010000000000014452297722014-05-25          000563442025MPREMLIMYGS   N00000000DEBITORDERMONTHLY   0YZAR   LIM          HELPING HANDS BURIAL SOCIETY 12351          N00                                                                        F                              
AOMGBS-000967300000            0510010000000000040735788222014-05-25          000029824025MPREMLIMYGS   N00000000DEBITORDERMONTHLY   0YZAR   LIM          Bakgone Womens Club           2351          N00                                                                        F                              
AOMGGFS-00178900000            6320050000000000012345678912014-05-24          003349200024MPREMLIMYGS   N00000000DEBITORDERMONTHLY   0YZAR   LIM          Cobie Funerals                2351          N00                                                                        F                              
DOMGGFS-00020100000            0510010000000000006173581712014-05-21          000000000025MPREMLIMYGS   N00000000DEBITORDERMONTHLY   0YZAR   LIM          GXALABA F/S                   2351          N00                                                                        F                              
TTOTZZZZZZZZZZZZZZZ                                                                                                                                                                                     00394246600000040000000000000000000000000000000000000000000000000000G                               
AOMGBS-000800600000            0510010000000000014452297722014-05-25          000563442025MPREMLIMYGS   N00000000DEBITORDERMONTHLY   0YZAR   LIM          HELPING HANDS BURIAL SOCIETY 12351          N00                                                                        F                              
AOMGBS-000967300000            0510010000000000040735788222014-05-25          000029824025MPREMLIMYGS   N00000000DEBITORDERMONTHLY   0YZAR   LIM          Bakgone Womens Club           2351          N00                                                                        F                              
AOMGGFS-00178900000            6320050000000000012345678912014-05-24          003349200024MPREMLIMYGS   N00000000DEBITORDERMONTHLY   0YZAR   LIM          Cobie Funerals                2351          N00                                                                        F                              
DOMGGFS-00020100000            0510010000000000006173581712014-05-21          000000000025MPREMLIMYGS   N00000000DEBITORDERMONTHLY   0YZAR   LIM          GXALABA F/S                   2351          N00                                                                        F                              
TTOTZZZZZZZZZZZZZZZ                                                                                                                                                                                     00394246600000040000000000000000000000000000000000000000000000000000G                               
AOMGBS-000800600000            0510010000000000014452297722014-05-25          000563442025MPREMLIMYGS   N00000000DEBITORDERMONTHLY   0YZAR   LIM          HELPING HANDS BURIAL SOCIETY 12351          N00                                                                        F                              
AOMGBS-000967300000            0510010000000000040735788222014-05-25          000029824025MPREMLIMYGS   N00000000DEBITORDERMONTHLY   0YZAR   LIM          Bakgone Womens Club           2351          N00                                                                        F                              
AOMGGFS-00178900000            6320050000000000012345678912014-05-24          003349200024MPREMLIMYGS   N00000000DEBITORDERMONTHLY   0YZAR   LIM          Cobie Funerals                2351          N00                                                                        F                              
DOMGGFS-00020100000            0510010000000000006173581712014-05-21          000000000025MPREMLIMYGS   N00000000DEBITORDERMONTHLY   0YZAR   LIM          GXALABA F/S                   2351          N00                                                                        F                              
TTOTZZZZZZZZZZZZZZZ                                                                                                                                                                                     00394246600000040000000000000000000000000000000000000000000000000000G                               
AOMGGFS001866000000            6320050000000000012345678912014-06-26          000238376026MPREMLIMYGS   N00000000DEBITORDERMONTHLY   0YZAR   LIM          Aldo Funerals                 2351          N00                                                                        F                              
TTOTZZZZZZZZZZZZZZZ                                                                                                                                                                                     00023837600000010000000000000000000000000000000000000000000000000000G                               
AOMGBS0010027000000            6320050000000000012345678912014-07-27          000001425027MPREMLIMYGS   N00000000DEBITORDERMONTHLY   0YZAR   LIM          Sweet Sleep Funerals          2351          N00                                                                        F                              
NOMGBS0010034000000            6320050000000000012345678912014-07-27          000001755027MPREMLIMYGS   N00000000DEBITORDERMONTHLY   0YZAR   LIM          Rondebosch Funeral Directors  2351          N00                                                                        F                              
DOMGBS0009944000000            6320050000000000012345678912014-07-23          000000000026MPREMLIMYGS   N00000000DEBITORDERMONTHLY   0YZAR   LIM          Kuilsriver Funerals           2351          N00                                                                        F                              
TTOTZZZZZZZZZZZZZZZ                                                                                                                                                                                     00000318000000030000000000000000000000000000000000000000000000000000G                               
DOMGBS0010038000000            6320050000000000012345678912014-09-22          000000000030MPREMLIMYGS   N00000000DEBITORDERMONTHLY   0YZAR   LIM          Sandybay Funerals             2351          N00                                                                        F                              
DOMGBS0010039000000            6320050000000000012345678912014-09-22          000000000030MPREMLIMYGS   N00000000DEBITORDERMONTHLY   0YZAR   LIM          Gordonsbay Funerals           2351          N00                                                                        F                              
DOMGBS0010037000000            6320050000000000012345678912014-09-22          000000000030MPREMLIMYGS   N00000000DEBITORDERMONTHLY   0YZAR   LIM          Houtbay Funerals              2351          N00                                                                        F                              
TTOTZZZZZZZZZZZZZZZ                                                                                                                                                                                     00000000000000030000000000000000000000000000000000000000000000000000G                               
DOMGBS0010039000000            6320050000000000012345678912014-09-22          000000000030MPREMLIMYGS   N00000000DEBITORDERMONTHLY   0YZAR   LIM          Gordonsbay Funerals           2351          N00                                                                        F                              
DOMGBS0010037000000            6320050000000000012345678912014-09-22          000000000030MPREMLIMYGS   N00000000DEBITORDERMONTHLY   0YZAR   LIM          Houtbay Funerals              2351          N00                                                                        F                              
DOMGBS0010038000000            6320050000000000012345678912014-09-22          000000000030MPREMLIMYGS   N00000000DEBITORDERMONTHLY   0YZAR   LIM          Sandybay Funerals             2351          N00                                                                        F                              
TTOTZZZZZZZZZZZZZZZ                                                                                                                                                                                     00000000000000030000000000000000000000000000000000000000000000000000G                               
NOMGBS0010050000000            6320050000000000012345678912013-08-23          000001963023MPREMLIMYGS   N00000000DEBITORDERMONTHLY   0YZAR   LIM          Northlink Funerals            2351          N00                                                                        F                              
TTOTZZZZZZZZZZZZZZZ                                                                                                                                                                                     00000196300000010000000000000000000000000000000000000000000000000000G                               
AOMGGFS-00029100000            0510010000000000016600795122013-09-22          000000000022MPREMLIMYGS   N00000000DEBITORDERMONTHLY   0YZAR   LIM          MASIVANE BURIAL SOCIETY       2351          N00                                                                        F                              
AOMGBS0010050000000            6320050000000000012345678912013-09-23          001001130023MPREMLIMYGS   N00000000DEBITORDERMONTHLY   0YZAR   LIM          Northlink Funerals            2351          N00                                                                        F                              
TTOTZZZZZZZZZZZZZZZ                                                                                                                                                                                     00100113000000020000000000000000000000000000000000000000000000000000G                               
AOMGBS-000800600000            0510010000000000014452297722013-11-25          000563442025MPREMLIMYGS   N00000000DEBITORDERMONTHLY   0YZAR   LIM          HELPING HANDS BURIAL SOCIETY 12351          N00                                                                        F                              
AOMGBS-000967300000            0510010000000000040735788222013-11-25          000029824025MPREMLIMYGS   N00000000DEBITORDERMONTHLY   0YZAR   LIM          Bakgone Womens Club           2351          N00                                                                        F                              
AOMGGFS-00178900000            6320050000000000012345678912013-11-24          003349200024MPREMLIMYGS   N00000000DEBITORDERMONTHLY   0YZAR   LIM          Cobie Funerals                2351          N00                                                                        F                              
DOMGGFS-00020100000            0510010000000000006173581712013-11-20          000000000025MPREMLIMYGS   N00000000DEBITORDERMONTHLY   0YZAR   LIM          GXALABA F/S                   2351          N00                                                                        F                              
TTOTZZZZZZZZZZZZZZZ                                                                                                                                                                                     00394246600000040000000000000000000000000000000000000000000000000000G                               
AOMGGFS-00029100000            0510010000000000016600795122013-12-22          000000000022MPREMLIMYGS   N00000000DEBITORDERMONTHLY   0YZAR   LIM          MASIVANE BURIAL SOCIETY       2351          N00                                                                        F                              
TTOTZZZZZZZZZZZZZZZ                                                                                                                                                                                     00000000000000010000000000000000000000000000000000000000000000000000G                               
AOMGGFS-00029100000            0510010000000000016600795122014-02-22          000000000022MPREMLIMYGS   N00000000DEBITORDERMONTHLY   0YZAR   LIM          MASIVANE BURIAL SOCIETY       2351          N00                                                                        F                              
AOMGGFS-00178900000            6320050000000000012345678912014-02-24          003349200024MPREMLIMYGS   N00000000DEBITORDERMONTHLY   0YZAR   LIM          Cobie Funerals                2351          N00                                                                        F                              
TTOTZZZZZZZZZZZZZZZ                                                                                                                                                                                     00334920000000020000000000000000000000000000000000000000000000000000G                               
AOMGGFS-00178900000            6320050000000000012345678912014-03-24          003349200024MPREMLIMYGS   N00000000DEBITORDERMONTHLY   0YZAR   LIM          Cobie Funerals                2351          N00                                                                        F                              
AOMGGFS-00029100000            0510010000000000016600795122014-03-22          000000000022MPREMLIMYGS   N00000000DEBITORDERMONTHLY   0YZAR   LIM          MASIVANE BURIAL SOCIETY       2351          N00                                                                        F                              
TTOTZZZZZZZZZZZZZZZ                                                                                                                                                                                     00334920000000020000000000000000000000000000000000000000000000000000G                               
AOMGGFS-00029100000            0510010000000000016600795122014-06-22          000000000022MPREMLIMYGS   N00000000DEBITORDERMONTHLY   0YZAR   LIM          MASIVANE BURIAL SOCIETY       2351          N00                                                                        F                              
TTOTZZZZZZZZZZZZZZZ                                                                                                                                                                                     00000000000000010000000000000000000000000000000000000000000000000000G                               
DOMGBS0009944000000            6320050000000000012345678912014-07-18          000000000026MPREMLIMYGS   N00000000DEBITORDERMONTHLY   0YZAR   LIM          Kuilsriver Funerals           2351          N00                                                                        F                              
TTOTZZZZZZZZZZZZZZZ                                                                                                                                                                                     00000000000000010000000000000000000000000000000000000000000000000000G                               
NOMGGFS001867000000            6320050000000000012345678912013-08-23          000000611023MPREMLIMYGS   N00000000DEBITORDERMONTHLY   0YZAR   LIM          Joint Venture Funerals        2351          N00                                                                        F                              
TTOTZZZZZZZZZZZZZZZ                                                                                                                                                                                     00000061100000010000000000000000000000000000000000000000000000000000G                               
AOMGGFS001867000000            6320050000000000012345678912013-09-23          000251291023MPREMLIMYGS   N00000000DEBITORDERMONTHLY   0YZAR   LIM          Joint Venture Funerals        2351          N00                                                                        F                              
AOMGGFS-00029100000            0510010000000000016600795122013-09-22          000000000022MPREMLIMYGS   N00000000DEBITORDERMONTHLY   0YZAR   LIM          MASIVANE BURIAL SOCIETY       2351          N00                                                                        F                              
AOMGBS0010050000000            6320050000000000012345678912013-09-23          001035287023MPREMLIMYGS   N00000000DEBITORDERMONTHLY   0YZAR   LIM          Northlink Funerals            2351          N00                                                                        F                              
TTOTZZZZZZZZZZZZZZZ                                                                                                                                                                                     00128657800000030000000000000000000000000000000000000000000000000000G                               
AOMGBS0010050000000            6320050000000000012345678912013-10-23          001035287023MPREMLIMYGS   N00000000DEBITORDERMONTHLY   0YZAR   LIM          Northlink Funerals            2351          N00                                                                        F                              
TTOTZZZZZZZZZZZZZZZ                                                                                                                                                                                     00103528700000010000000000000000000000000000000000000000000000000000G                               
AOMGBS-000800600000            0510010000000000014452297722013-11-25          000563442025MPREMLIMYGS   N00000000DEBITORDERMONTHLY   0YZAR   LIM          HELPING HANDS BURIAL SOCIETY 12351          N00                                                                        F                              
AOMGBS-000967300000            0510010000000000040735788222013-11-25          000029824025MPREMLIMYGS   N00000000DEBITORDERMONTHLY   0YZAR   LIM          Bakgone Womens Club           2351          N00                                                                        F                              
AOMGGFS-00178900000            6320050000000000012345678912013-11-24          003349200024MPREMLIMYGS   N00000000DEBITORDERMONTHLY   0YZAR   LIM          Cobie Funerals                2351          N00                                                                        F                              
AOMGBS0010050000000            6320050000000000012345678912013-11-23          001035287023MPREMLIMYGS   N00000000DEBITORDERMONTHLY   0YZAR   LIM          Northlink Funerals            2351          N00                                                                        F                              
DOMGGFS-00020100000            0510010000000000006173581712013-11-20          000000000025MPREMLIMYGS   N00000000DEBITORDERMONTHLY   0YZAR   LIM          GXALABA F/S                   2351          N00                                                                        F                              
TTOTZZZZZZZZZZZZZZZ                                                                                                                                                                                     00497775300000050000000000000000000000000000000000000000000000000000G                               
AOMGGFS-00029100000            0510010000000000016600795122013-12-22          000000000022MPREMLIMYGS   N00000000DEBITORDERMONTHLY   0YZAR   LIM          MASIVANE BURIAL SOCIETY       2351          N00                                                                        F                              
AOMGBS0010050000000            6320050000000000012345678912013-12-23          001035287023MPREMLIMYGS   N00000000DEBITORDERMONTHLY   0YZAR   LIM          Northlink Funerals            2351          N00                                                                        F                              
TTOTZZZZZZZZZZZZZZZ                                                                                                                                                                                     00103528700000020000000000000000000000000000000000000000000000000000G                               
AOMGBS0010050000000            6320050000000000012345678912014-01-23          001035287023MPREMLIMYGS   N00000000DEBITORDERMONTHLY   0YZAR   LIM          Northlink Funerals            2351          N00                                                                        F                              
TTOTZZZZZZZZZZZZZZZ                                                                                                                                                                                     00103528700000010000000000000000000000000000000000000000000000000000G                               
AOMGGFS-00029100000            0510010000000000016600795122014-02-22          000000000022MPREMLIMYGS   N00000000DEBITORDERMONTHLY   0YZAR   LIM          MASIVANE BURIAL SOCIETY       2351          N00                                                                        F                              
AOMGBS0010050000000            6320050000000000012345678912014-02-23          001035287023MPREMLIMYGS   N00000000DEBITORDERMONTHLY   0YZAR   LIM          Northlink Funerals            2351          N00                                                                        F                              
AOMGGFS-00178900000            6320050000000000012345678912014-02-24          003349200024MPREMLIMYGS   N00000000DEBITORDERMONTHLY   0YZAR   LIM          Cobie Funerals                2351          N00                                                                        F                              
TTOTZZZZZZZZZZZZZZZ                                                                                                                                                                                     00438448700000030000000000000000000000000000000000000000000000000000G                               
AOMGGFS-00029100000            0510010000000000016600795122014-03-22          000000000022MPREMLIMYGS   N00000000DEBITORDERMONTHLY   0YZAR   LIM          MASIVANE BURIAL SOCIETY       2351          N00                                                                        F                              
AOMGGFS-00178900000            6320050000000000012345678912014-03-24          003349200024MPREMLIMYGS   N00000000DEBITORDERMONTHLY   0YZAR   LIM          Cobie Funerals                2351          N00                                                                        F                              
AOMGBS0010050000000            6320050000000000012345678912014-03-23          001035287023MPREMLIMYGS   N00000000DEBITORDERMONTHLY   0YZAR   LIM          Northlink Funerals            2351          N00                                                                        F                              
TTOTZZZZZZZZZZZZZZZ                                                                                                                                                                                     00438448700000030000000000000000000000000000000000000000000000000000G                               
AOMGGFS001867000000            6320050000000000012345678912014-04-23          000251056023MPREMLIMYGS   N00000000DEBITORDERMONTHLY   0YZAR   LIM          Joint Venture Funerals        2351          N00                                                                        F                              
AOMGBS0010050000000            6320050000000000012345678912014-04-23          001035287023MPREMLIMYGS   N00000000DEBITORDERMONTHLY   0YZAR   LIM          Northlink Funerals            2351          N00                                                                        F                              
TTOTZZZZZZZZZZZZZZZ                                                                                                                                                                                     00128634300000020000000000000000000000000000000000000000000000000000G                               
AOMGBS0010050000000            6320050000000000012345678912014-05-23          001035287023MPREMLIMYGS   N00000000DEBITORDERMONTHLY   0YZAR   LIM          Northlink Funerals            2351          N00                                                                        F                              
TTOTZZZZZZZZZZZZZZZ                                                                                                                                                                                     00103528700000010000000000000000000000000000000000000000000000000000G                               
AOMGGFS-00029100000            0510010000000000016600795122014-06-22          000000000022MPREMLIMYGS   N00000000DEBITORDERMONTHLY   0YZAR   LIM          MASIVANE BURIAL SOCIETY       2351          N00                                                                        F                              
AOMGBS0010050000000            6320050000000000012345678912014-06-23          001035287023MPREMLIMYGS   N00000000DEBITORDERMONTHLY   0YZAR   LIM          Northlink Funerals            2351          N00                                                                        F                              
TTOTZZZZZZZZZZZZZZZ                                                                                                                                                                                     00103528700000020000000000000000000000000000000000000000000000000000G                               
DOMGBS0009944000000            6320050000000000012345678912014-07-18          000000000026MPREMLIMYGS   N00000000DEBITORDERMONTHLY   0YZAR   LIM          Kuilsriver Funerals           2351          N00                                                                        F                              
TTOTZZZZZZZZZZZZZZZ                                                                                                                                                                                     00000000000000010000000000000000000000000000000000000000000000000000G                               
AOMGBS-000800600000            0510010000000000014452297722014-08-25          000563442025MPREMLIMYGS   N00000000DEBITORDERMONTHLY   0YZAR   LIM          HELPING HANDS BURIAL SOCIETY 12351          N00                                                                        F                              
AOMGBS-000967300000            0510010000000000040735788222014-08-25          000029824025MPREMLIMYGS   N00000000DEBITORDERMONTHLY   0YZAR   LIM          Bakgone Womens Club           2351          N00                                                                        F                              
AOMGGFS-00178900000            6320050000000000012345678912014-08-24          003349200024MPREMLIMYGS   N00000000DEBITORDERMONTHLY   0YZAR   LIM          Cobie Funerals                2351          N00                                                                        F                              
AOMGBS0010050000000            6320050000000000012345678912014-08-23          001035287023MPREMLIMYGS   N00000000DEBITORDERMONTHLY   0YZAR   LIM          Northlink Funerals            2351          N00                                                                        F                              
DOMGGFS-00020100000            0510010000000000006173581712014-08-20          000000000025MPREMLIMYGS   N00000000DEBITORDERMONTHLY   0YZAR   LIM          GXALABA F/S                   2351          N00                                                                        F                              
TTOTZZZZZZZZZZZZZZZ                                                                                                                                                                                     00497775300000050000000000000000000000000000000000000000000000000000G                               
AOMGBS-000800600000            0510010000000000014452297722013-08-25          000563442025MPREMLIMYGS   N00000000DEBITORDERMONTHLY   0YZAR   LIM          HELPING HANDS BURIAL SOCIETY 12351          N00                                                                        F                              
AOMGBS-000967300000            0510010000000000040735788222013-08-25          000029824025MPREMLIMYGS   N00000000DEBITORDERMONTHLY   0YZAR   LIM          Bakgone Womens Club           2351          N00                                                                        F                              
AOMGGFS-00178900000            6320050000000000012345678912013-08-24          003349200024MPREMLIMYGS   N00000000DEBITORDERMONTHLY   0YZAR   LIM          Cobie Funerals                2351          N00                                                                        F                              
NOMGBS0010051000000            6320050000000000012345678912013-08-24          000001963024MPREMLIMYGS   N00000000DEBITORDERMONTHLY   0YZAR   LIM          Archi Funerals                2351          N00                                                                        F                              
DOMGGFS-00020100000            0510010000000000006173581712013-08-21          000000000025MPREMLIMYGS   N00000000DEBITORDERMONTHLY   0YZAR   LIM          GXALABA F/S                   2351          N00                                                                        F                              
TTOTZZZZZZZZZZZZZZZ                                                                                                                                                                                     00394442900000050000000000000000000000000000000000000000000000000000G                               
AOMGBS-000800600000            0510010000000000014452297722013-09-25          000563442025MPREMLIMYGS   N00000000DEBITORDERMONTHLY   0YZAR   LIM          HELPING HANDS BURIAL SOCIETY 12351          N00                                                                        F                              
AOMGGFS-00178900000            6320050000000000012345678912013-09-24          003349200024MPREMLIMYGS   N00000000DEBITORDERMONTHLY   0YZAR   LIM          Cobie Funerals                2351          N00                                                                        F                              
AOMGBS-000967300000            0510010000000000040735788222013-09-25          000029824025MPREMLIMYGS   N00000000DEBITORDERMONTHLY   0YZAR   LIM          Bakgone Womens Club           2351          N00                                                                        F                              
AOMGBS0010051000000            6320050000000000012345678912013-09-24          000981500024MPREMLIMYGS   N00000000DEBITORDERMONTHLY   0YZAR   LIM          Archi Funerals                2351          N00                                                                        F                              
DOMGGFS-00020100000            0510010000000000006173581712013-09-19          000000000025MPREMLIMYGS   N00000000DEBITORDERMONTHLY   0YZAR   LIM          GXALABA F/S                   2351          N00                                                                        F                              
TTOTZZZZZZZZZZZZZZZ                                                                                                                                                                                     00492396600000050000000000000000000000000000000000000000000000000000G                               
AOMGGFS-00178900000            6320050000000000012345678912013-10-24          003349200024MPREMLIMYGS   N00000000DEBITORDERMONTHLY   0YZAR   LIM          Cobie Funerals                2351          N00                                                                        F                              
TTOTZZZZZZZZZZZZZZZ                                                                                                                                                                                     00334920000000010000000000000000000000000000000000000000000000000000G                               
AOMGBS-000800600000            0510010000000000014452297722013-11-25          000563442025MPREMLIMYGS   N00000000DEBITORDERMONTHLY   0YZAR   LIM          HELPING HANDS BURIAL SOCIETY 12351          N00                                                                        F                              
AOMGBS-000967300000            0510010000000000040735788222013-11-25          000029824025MPREMLIMYGS   N00000000DEBITORDERMONTHLY   0YZAR   LIM          Bakgone Womens Club           2351          N00                                                                        F                              
AOMGGFS-00178900000            6320050000000000012345678912013-11-24          003349200024MPREMLIMYGS   N00000000DEBITORDERMONTHLY   0YZAR   LIM          Cobie Funerals                2351          N00                                                                        F                              
DOMGGFS-00020100000            0510010000000000006173581712013-11-20          000000000025MPREMLIMYGS   N00000000DEBITORDERMONTHLY   0YZAR   LIM          GXALABA F/S                   2351          N00                                                                        F                              
TTOTZZZZZZZZZZZZZZZ                                                                                                                                                                                     00394246600000040000000000000000000000000000000000000000000000000000G                               
AOMGGFS-00178900000            6320050000000000012345678912013-12-24          003349200024MPREMLIMYGS   N00000000DEBITORDERMONTHLY   0YZAR   LIM          Cobie Funerals                2351          N00                                                                        F                              
TTOTZZZZZZZZZZZZZZZ                                                                                                                                                                                     00334920000000010000000000000000000000000000000000000000000000000000G                               
AOMGGFS-00178900000            6320050000000000012345678912014-01-24          003349200024MPREMLIMYGS   N00000000DEBITORDERMONTHLY   0YZAR   LIM          Cobie Funerals                2351          N00                                                                        F                              
TTOTZZZZZZZZZZZZZZZ                                                                                                                                                                                     00334920000000010000000000000000000000000000000000000000000000000000G                               
AOMGGFS-00029100000            0510010000000000016600795122014-02-22          000000000022MPREMLIMYGS   N00000000DEBITORDERMONTHLY   0YZAR   LIM          MASIVANE BURIAL SOCIETY       2351          N00                                                                        F                              
AOMGGFS-00178900000            6320050000000000012345678912014-02-24          003349200024MPREMLIMYGS   N00000000DEBITORDERMONTHLY   0YZAR   LIM          Cobie Funerals                2351          N00                                                                        F                              
TTOTZZZZZZZZZZZZZZZ                                                                                                                                                                                     00334920000000020000000000000000000000000000000000000000000000000000G                               
AOMGGFS-00029100000            0510010000000000016600795122014-03-22          000000000022MPREMLIMYGS   N00000000DEBITORDERMONTHLY   0YZAR   LIM          MASIVANE BURIAL SOCIETY       2351          N00                                                                        F                              
AOMGGFS-00178900000            6320050000000000012345678912014-03-24          003349200024MPREMLIMYGS   N00000000DEBITORDERMONTHLY   0YZAR   LIM          Cobie Funerals                2351          N00                                                                        F                              
TTOTZZZZZZZZZZZZZZZ                                                                                                                                                                                     00334920000000020000000000000000000000000000000000000000000000000000G                               
AOMGGFS-00178900000            6320050000000000012345678912014-04-24          003349200024MPREMLIMYGS   N00000000DEBITORDERMONTHLY   0YZAR   LIM          Cobie Funerals                2351          N00                                                                        F                              
AOMGBS0010051000000            6320050000000000012345678912014-04-24          000979537024MPREMLIMYGS   N00000000DEBITORDERMONTHLY   0YZAR   LIM          Archi Funerals                2351          N00                                                                        F                              
TTOTZZZZZZZZZZZZZZZ                                                                                                                                                                                     00432873700000020000000000000000000000000000000000000000000000000000G                               
AOMGBS-000800600000            0510010000000000014452297722014-05-25          000563442025MPREMLIMYGS   N00000000DEBITORDERMONTHLY   0YZAR   LIM          HELPING HANDS BURIAL SOCIETY 12351          N00                                                                        F                              
AOMGGFS-00178900000            6320050000000000012345678912014-05-24          003349200024MPREMLIMYGS   N00000000DEBITORDERMONTHLY   0YZAR   LIM          Cobie Funerals                2351          N00                                                                        F                              
