NOMGBS0010549000000            6320050000000000012345678912014-09-26          000001963026MPREMLIMYGS   N00000000DEBITORDERMONTHLY   0YZAR   LIM          Wells Funerals                2351          N00                                                                        F                              
TTOTZZZZZZZZZZZZZZZ                                                                                                                                                                                     00000196300000010000000000000000000000000000000000000000000000000000G                               
NOMGBS0010035000000            6320050000000000012345678912014-09-26          000001547026MPREMLIMYGS   N00000000DEBITORDERMONTHLY   0YZAR   LIM          Fairways Funerals             2351          N00                                                                        F                              
TTOTZZZZZZZZZZZZZZZ                                                                                                                                                                                     00000154700000010000000000000000000000000000000000000000000000000000G                               
DOMGBS0010035000000            6320050000000000012345678912014-09-27          000001547027MPREMLIMYGS   N00000000DEBITORDERMONTHLY   0YZAR   LIM          Fairways Funerals             2351          N00                                                                        F                              
NOMGBS0010035000000            6320050000000000012345678912014-09-27          000001547027MPREMLIMYGS   N00000000DEBITORDERMONTHLY   0YZAR   LIM          Fairways Funerals             2351          N00                                                                        F                              
TTOTZZZZZZZZZZZZZZZ                                                                                                                                                                                     00000309400000020000000000000000000000000000000000000000000000000000G                               
DOMGBS0010027000000            6320050000000000012345678912014-09-27          000001425027MPREMLIMYGS   N00000000DEBITORDERMONTHLY   0YZAR   LIM          Sweet Sleep Funerals          2351          N00                                                                        F                              
NOMGBS0010027000000            6320050000000000012345678912014-09-27          000001425027MPREMLIMYGS   N00000000DEBITORDERMONTHLY   0YZAR   LIM          Sweet Sleep Funerals          2351          N00                                                                        F                              
AOMGBS0009989000000            6320050000000000012345678912014-09-29          000001547029MPREMLIMYGS   N00000000DEBITORDERMONTHLY   0YZAR   LIM          Wellington Funerals           2351          N00                                                                        F                              
NOMGBS0009990000000            6320050000000000012345678912014-09-29          000001547029MPREMLIMYGS   N00000000DEBITORDERMONTHLY   0YZAR   LIM          Swartland Funerals            2351          N00                                                                        F                              
TTOTZZZZZZZZZZZZZZZ                                                                                                                                                                                     00000594400000040000000000000000000000000000000000000000000000000000G                               
DOMGBS0010027000000            6320050000000000012345678912014-09-27          000001425027MPREMLIMYGS   N00000000DEBITORDERMONTHLY   0YZAR   LIM          Sweet Sleep Funerals          2351          N00                                                                        F                              
NOMGBS0010027000000            6320050000000000012345678912014-09-27          000001425027MPREMLIMYGS   N00000000DEBITORDERMONTHLY   0YZAR   LIM          Sweet Sleep Funerals          2351          N00                                                                        F                              
AOMGBS0009989000000            6320050000000000012345678912014-09-29          000001547029MPREMLIMYGS   N00000000DEBITORDERMONTHLY   0YZAR   LIM          Wellington Funerals           2351          N00                                                                        F                              
NOMGBS0009990000000            6320050000000000012345678912014-09-29          000001547029MPREMLIMYGS   N00000000DEBITORDERMONTHLY   0YZAR   LIM          Swartland Funerals            2351          N00                                                                        F                              
TTOTZZZZZZZZZZZZZZZ                                                                                                                                                                                     00000594400000040000000000000000000000000000000000000000000000000000G                               
AOMGBS-000801700000            6320050000000000921643242822014-09-30          000011880030MPREMLIMYGS   N00000000DEBITORDERMONTHLY   0YZAR   LIM          MASITHEMBANE  SAVERS CLUB     2351          N00                                                                        F                              
AOMGGFS-00005300000            0510010000000000024070518112014-09-30          000388367231MPREMLIMYGS   N00000000DEBITORDERMONTHLY   0YZAR   LIM          MAUDE'S FUNERAL PLANS         2351          N00                                                                        F                              
NOMGGFS-00011300000            6320050000000000914695744722014-09-30          000092725031MPREMLIMYGS   N00000000DEBITORDERMONTHLY   0YZAR   LIM          KWANELE BURIAL SOCIETY        2351          N00                                                                        F                              
NOMGBS0010036000000            6320050000000000012345678912014-09-30          000001547030MPREMLIMYGS   N00000000DEBITORDERMONTHLY   0YZAR   LIM          Fairways Funerals             2351          N00                                                                        F                              
DOMGGFS-00023900000            0510010000000000006179377912014-09-25          000000000031MPREMLIMYGS   N00000000DEBITORDERMONTHLY   0YZAR   LIM          MZONELI BURIAL CLUB           2351          N00                                                                        F                              
DOMGGFS-00001000000            0510010000000000004207959412014-09-25          000000000030MPREMLIMYGS   N00000000DEBITORDERMONTHLY   0YZAR   LIM          PHAHANA                       2351          N00                                                                        F                              
TTOTZZZZZZZZZZZZZZZ                                                                                                                                                                                     00049451920000060000000000000000000000000000000000000000000000000000G                               
DOMGBS0010036000000            6320050000000000012345678912014-11-30          000001547030MPREMLIMYGS   N00000000DEBITORDERMONTHLY   0YZAR   LIM          Fairways Funerals             2351          N00                                                                        F                              
NOMGBS0010036000000            6320050000000000012345678912014-11-30          000001547030MPREMLIMYGS   N00000000DEBITORDERMONTHLY   0YZAR   LIM          Fairways Funerals             2351          N00                                                                        F                              
AOMGGFS-00004900000            6320050000000000012345678922014-12-01          000647588501MPREMLIMYGS   N00000000DEBITORDERMONTHLY   0YZAR   LIM          THUSHONG FUNERAL SCHEME       2351          N00                                                                        F                              
AOMGBS0009980000000            6320050000000000012345678912014-11-29          000120666029MPREMLIMYGS   N00000000DEBITORDERMONTHLY   0YZAR   LIM          Peters FD                     2351          N00                                                                        F                              
AOMGBS0009962000000            6320050000000000012345678912014-12-01          000343980001MPREMLIMYGS   N00000000DEBITORDERMONTHLY   0YZAR   LIM          Osmosis Funerals              2351          N00                                                                        F                              
AOMGBS0009966000000            6320050000000000012345678912014-12-01          000001425001MPREMLIMYGS   N00000000DEBITORDERMONTHLY   0YZAR   LIM          Clowers Funerals              2351          N00                                                                        F                              
AOMGGFS-00161400000            6320050000000000012345678912014-12-01          000003834001MPREMLIMYGS   N00000000DEBITORDERMONTHLY   0YZAR   LIM          Boney FS                      2351          N00                                                                        F                              
AOMGBS0009994000000            6320050000000000012345678912014-12-01          000001547001MPREMLIMYGS   N00000000DEBITORDERMONTHLY   0YZAR   LIM          Korsten Funerals              2351          N00                                                                        F                              
AOMGBS0009987000000            6320050000000000012345678912014-11-29          000001547029MPREMLIMYGS   N00000000DEBITORDERMONTHLY   0YZAR   LIM          Old Kids Funerals             2351          N00                                                                        F                              
AOMGBS0009985000000            6320050000000000012345678912014-12-01          000001547001MPREMLIMYGS   N00000000DEBITORDERMONTHLY   0YZAR   LIM          Albany FD                     2351          N00                                                                        F                              
AOMGBS-000990700000            6320050000000000012345678912014-12-01          000003510001MPREMLIMYGS   N00000000DEBITORDERMONTHLY   0YZAR   LIM          Jones Hope Funerals           2351          N00                                                                        F                              
AOMGBS0009986000000            6320050000000000012345678912014-11-29          000001547029MPREMLIMYGS   N00000000DEBITORDERMONTHLY   0YZAR   LIM          New Kids Funerals             2351          N00                                                                        F                              
DOMGBS0009993000000            6320050000000000012345678912014-11-26          000000000001MPREMLIMYGS   N00000000DEBITORDERMONTHLY   0YZAR   LIM          Cotsworld Funerals            2351          N00                                                                        F                              
TTOTZZZZZZZZZZZZZZZ                                                                                                                                                                                     00113028500000130000000000000000000000000000000000000000000000000000G                               
NOMGBS0010037000000            6320050000000000012345678912014-09-30          000001963030MPREMLIMYGS   N00000000DEBITORDERMONTHLY   0YZAR   LIM          Houtbay Funerals              2351          N00                                                                        F                              
TTOTZZZZZZZZZZZZZZZ                                                                                                                                                                                     00000196300000010000000000000000000000000000000000000000000000000000G                               
NOMGBS0010038000000            6320050000000000012345678912014-09-30          000001963030MPREMLIMYGS   N00000000DEBITORDERMONTHLY   0YZAR   LIM          Sandybay Funerals             2351          N00                                                                        F                              
DOMGBS0010037000000            6320050000000000012345678912014-09-25          000000000030MPREMLIMYGS   N00000000DEBITORDERMONTHLY   0YZAR   LIM          Houtbay Funerals              2351          N00                                                                        F                              
TTOTZZZZZZZZZZZZZZZ                                                                                                                                                                                     00000196300000020000000000000000000000000000000000000000000000000000G                               
