NOMGBS0010549000000            6320050000000000012345678912014-09-26          000001963026MPREMLIMYGS   N00000000DEBITORDERMONTHLY   0YZAR   LIM          Wells Funerals                2351          N00                                                                        F                              
TTOTZZZZZZZZZZZZZZZ                                                                                                                                                                                     00000196300000010000000000000000000000000000000000000000000000000000G                               
NOMGBS0010035000000            6320050000000000012345678912014-09-26          000001547026MPREMLIMYGS   N00000000DEBITORDERMONTHLY   0YZAR   LIM          Fairways Funerals             2351          N00                                                                        F                              
TTOTZZZZZZZZZZZZZZZ                                                                                                                                                                                     00000154700000010000000000000000000000000000000000000000000000000000G                               
DOMGBS0010035000000            6320050000000000012345678912014-09-27          000001547027MPREMLIMYGS   N00000000DEBITORDERMONTHLY   0YZAR   LIM          Fairways Funerals             2351          N00                                                                        F                              
NOMGBS0010035000000            6320050000000000012345678912014-09-27          000001547027MPREMLIMYGS   N00000000DEBITORDERMONTHLY   0YZAR   LIM          Fairways Funerals             2351          N00                                                                        F                              
TTOTZZZZZZZZZZZZZZZ                                                                                                                                                                                     00000309400000020000000000000000000000000000000000000000000000000000G                               
DOMGBS0010027000000            6320050000000000012345678912014-09-27          000001425027MPREMLIMYGS   N00000000DEBITORDERMONTHLY   0YZAR   LIM          Sweet Sleep Funerals          2351          N00                                                                        F                              
NOMGBS0010027000000            6320050000000000012345678912014-09-27          000001425027MPREMLIMYGS   N00000000DEBITORDERMONTHLY   0YZAR   LIM          Sweet Sleep Funerals          2351          N00                                                                        F                              
AOMGBS0009989000000            6320050000000000012345678912014-09-29          000001547029MPREMLIMYGS   N00000000DEBITORDERMONTHLY   0YZAR   LIM          Wellington Funerals           2351          N00                                                                        F                              
NOMGBS0009990000000            6320050000000000012345678912014-09-29          000001547029MPREMLIMYGS   N00000000DEBITORDERMONTHLY   0YZAR   LIM          Swartland Funerals            2351          N00                                                                        F                              
TTOTZZZZZZZZZZZZZZZ                                                                                                                                                                                     00000594400000040000000000000000000000000000000000000000000000000000G                               
DOMGBS0010027000000            6320050000000000012345678912014-09-27          000001425027MPREMLIMYGS   N00000000DEBITORDERMONTHLY   0YZAR   LIM          Sweet Sleep Funerals          2351          N00                                                                        F                              
NOMGBS0010027000000            6320050000000000012345678912014-09-27          000001425027MPREMLIMYGS   N00000000DEBITORDERMONTHLY   0YZAR   LIM          Sweet Sleep Funerals          2351          N00                                                                        F                              
AOMGBS0009989000000            6320050000000000012345678912014-09-29          000001547029MPREMLIMYGS   N00000000DEBITORDERMONTHLY   0YZAR   LIM          Wellington Funerals           2351          N00                                                                        F                              
NOMGBS0009990000000            6320050000000000012345678912014-09-29          000001547029MPREMLIMYGS   N00000000DEBITORDERMONTHLY   0YZAR   LIM          Swartland Funerals            2351          N00                                                                        F                              
TTOTZZZZZZZZZZZZZZZ                                                                                                                                                                                     00000594400000040000000000000000000000000000000000000000000000000000G                               
AOMGBS-000801700000            6320050000000000921643242822014-09-30          000011880030MPREMLIMYGS   N00000000DEBITORDERMONTHLY   0YZAR   LIM          MASITHEMBANE  SAVERS CLUB     2351          N00                                                                        F                              
AOMGGFS-00005300000            0510010000000000024070518112014-09-30          000388367231MPREMLIMYGS   N00000000DEBITORDERMONTHLY   0YZAR   LIM          MAUDE'S FUNERAL PLANS         2351          N00                                                                        F                              
NOMGGFS-00011300000            6320050000000000914695744722014-09-30          000092725031MPREMLIMYGS   N00000000DEBITORDERMONTHLY   0YZAR   LIM          KWANELE BURIAL SOCIETY        2351          N00                                                                        F                              
NOMGBS0010036000000            6320050000000000012345678912014-09-30          000001547030MPREMLIMYGS   N00000000DEBITORDERMONTHLY   0YZAR   LIM          Fairways Funerals             2351          N00                                                                        F                              
DOMGGFS-00023900000            0510010000000000006179377912014-09-25          000000000031MPREMLIMYGS   N00000000DEBITORDERMONTHLY   0YZAR   LIM          MZONELI BURIAL CLUB           2351          N00                                                                        F                              
DOMGGFS-00001000000            0510010000000000004207959412014-09-25          000000000030MPREMLIMYGS   N00000000DEBITORDERMONTHLY   0YZAR   LIM          PHAHANA                       2351          N00                                                                        F                              
TTOTZZZZZZZZZZZZZZZ                                                                                                                                                                                     00049451920000060000000000000000000000000000000000000000000000000000G                               
